:020000040800F2
:1000000000280020C11200085112000857120008F1
:100010005D12000863120008691200080000000069
:100020000000000000000000000000006F12000847
:100030007B120008000000008712000893120008DD
:100040000913000809130008091300080913000820
:100050000913000809130008091300080913000810
:100060000913000809130008091300080913000800
:1000700009130008091300080913000809130008F0
:1000800009130008091300080913000809130008E0
:1000900009130008091300080913000809130008D0
:1000A00009130008091300080913000809130008C0
:1000B000A11200080913000800000000091300083D
:1000C00009130008000000000000000009130008E8
:1000D00000000000091300080913000800000000D8
:1000E00009130008091300080913000800000000A4
:1000F0000000000000000000000000000000000000
:0C01000000000000000000005FF808F1A3
:10010C0010B5054C237833B9044B13B10448AFF345
:10011C0000800123237010BD1C0000200000000093
:10012C003829000808B5034B1BB103490348AFF34A
:10013C00008008BD000000002000002038290008C5
:10014C0080B483B000AF00237B601AE0114A7B6857
:10015C00002142F8231000233B600CE00E497A6822
:10016C0013465B0013443A681344012241F82320E0
:10017C003B6801333B603B68022BEFDD7B6801334E
:10018C007B607B68022BE1DD00BF00BF0C37BD46F6
:10019C0080BC7047380000207400002080B400AF91
:1001AC00064B1B68012B04D1044B00221A6001235F
:1001BC0000E000231846BD4680BC70473800002084
:1001CC0080B400AF064B5B68012B04D1044B0022BA
:1001DC005A60012300E000231846BD4680BC7047DE
:1001EC003800002080B400AF064B9B68012B04D173
:1001FC00044B00229A60012300E000231846BD4600
:10020C0080BC70473800002080B582B000AF00235E
:10021C007B60D9E071497A6813465B0013449B00FC
:10022C000B44043319686D487A6813465B00134419
:10023C009B000344196069497A6813465B001344B8
:10024C009B000B440833196864487A6813465B00BA
:10025C0013449B000344043319607B68002B0FD1BB
:10026C0010215F4801F036FB034618465B497A685B
:10027C0013465B0013449B000B440833186024E0C6
:10028C007B68012B0FD12021554801F023FB03463D
:10029C00184652497A6813465B0013449B000B4482
:1002AC000833186011E07B68022B0ED140214C48BA
:1002BC0001F010FB0346184648497A6813465B0068
:1002CC0013449B000B440833186044497A68134666
:1002DC005B0013449B000B44196840487A68134632
:1002EC005B0013449B00034404331B68994268D1A0
:1002FC003A497A6813465B0013449B000B44043361
:10030C00196836487A6813465B0013449B00034413
:10031C0008331B68994254D130497A6813465B0004
:10032C0013449B000B44083319682C487A68134615
:10033C005B0013449B0003441B68994224D027495B
:10034C007A6813465B0013449B000B44083319680E
:10035C0022487A6813465B0013449B0003441960DF
:10036C001E497A6813465B0013449B000B44083308
:10037C001B68002B25D11B4A7B68012142F82310F6
:10038C00194B00221A601CE014497A6813465B0072
:10039C0013449B000B4408331B68002B11D1124BE8
:1003AC001B680133104A13600F4B1B68C72B08DD09
:1003BC000A497A6813465B0013449B000B440122E4
:1003CC001A607B6801337B607B68022B7FF722AF5E
:1003DC0000BF00BF0837BD4680BD00BF74000020C1
:1003EC00000C0140380000204400002080B500AF14
:1003FC00914B1B78042B00F2558201A252F823F08A
:10040C002104000895040008810600084107000833
:10041C0001080008894B1B68012B04D1FFF7F4FE7F
:10042C000A2000F04FFEFFF7B9FE0346012B06D160
:10043C00814B01221A70824B00221A603DE2814BE3
:10044C0058221A60804B58221A60804B1B68012B73
:10045C0040F02A827A4B1B68032B02DD784B00227A
:10046C001A60774B1B685A1C75490A60184600F0D5
:10047C0005FC4FF4FA7000F0EDFD00F0A5FC00F067
:10048C00B1FC00F0BDFC0FE26C4B1B68012B04D1DE
:10049C00FFF7BAFE0A2000F015FEFFF77FFE0346B9
:1004AC00012B10D1644B02221A70694B1B68694AEC
:1004BC001360082000F076FC402000F073FC604BC9
:1004CC0000221A60F9E1644B1B68012B40F09A8002
:1004DC00624B1B68002B3DD1614B1B68002B10D16C
:1004EC00082000F04DFC042000F05CFC022000F021
:1004FC0059FC5B4B02221A60554B1B68574A136020
:10050C0028E0574B1B68012B10D1082000F04AFC47
:10051C00042000F035FC022000F044FC504B00227B
:10052C001A60504B1B684D4A136013E04C4B1B6810
:10053C00022B0FD1082000F035FC042000F032FC17
:10054C00022000F01DFC464B01221A60464B1B6832
:10055C00424A1360454B1B68002B3DD1444B1B6832
:10056C00002B10D1402000F00BFC202000F01AFCD6
:10057C00102000F017FC3E4B02221A60344B1B6813
:10058C003A4A136028E03A4B1B68012B10D14020EB
:10059C0000F008FC202000F0F3FB102000F002FC1F
:1005AC00334B00221A602F4B1B68304A136013E048
:1005BC002F4B1B68152B0FD1402000F0F3FB202094
:1005CC0000F0F0FB102000F0DBFB294B01221A603D
:1005DC00254B1B68254A1360204B1B68013B1F4AA7
:1005EC001360224B1B68013B204A13601B4B1B689A
:1005FC00144A13601D4B1B68134A13604FF47A7036
:10060C0000F044FD114B1B68012B40F04F810C4B4B
:10061C001B68032B02DD0A4B00221A60084B1B6877
:10062C005A1C07490A60184600F028FB4FF4FA7070
:10063C0000F010FD3AE100BF4800002070000020DF
:10064C0058000020A8000020A4000020600000201A
:10065C0004000020A00000206800002050000020B2
:10066C004C000020080000200C000020540000204A
:10067C0000000020924B1B68012B04D1FFF7C4FD36
:10068C000A2000F01FFDFFF789FD0346012B09D15D
:10069C008C4B03221A708C4B1B688C4A13608C4B4E
:1006AC0000221A60FFF78CFD0346012B0BD1894BFE
:1006BC001B680133874A1360864B1B68632B02DD72
:1006CC00844B01221A60FFF78DFD0346012B03D1E9
:1006DC00804B1B68804A1360022000F063FB1020E3
:1006EC0000F060FB042000F05DFB202000F05AFBC2
:1006FC007A4B02221A60774B1B68794A1360794B4C
:10070C001B68012B40F0D480714B1B68032B02DD5E
:10071C006F4B00221A606E4B1B685A1C6C490A60A6
:10072C00184600F0ABFA4FF4FA7000F093FC00F0AE
:10073C004BFBBDE0624B1B68012B04D1FFF764FD42
:10074C000A2000F0BFFCFFF729FD0346012B0AD15C
:10075C005C4B04221A70644B1B68644A13605C4B3C
:10076C0000221A60A9E0FFF72BFD0346012B0BD1E9
:10077C00564B1B680133554A1360544B1B68632B53
:10078C0002DD524B01221A60FFF72CFD0346012BB0
:10079C0003D14E4B1B684C4A1360082000F002FB3F
:1007AC00402000F0FFFA022000F0FCFA102000F0CC
:1007BC00F9FA4A4B03221A60444B1B68484A1360EF
:1007CC00484B1B68012B75D1414B1B68032B02DD79
:1007DC003F4B00221A603E4B1B685A1C3C490A6076
:1007EC00184600F04BFA4FF4FA7000F033FC00F0AE
:1007FC00F9FA5FE0324B1B68012B04D1FFF704FDC3
:10080C000A2000F05FFCFFF7C9FC0346012B02D164
:10081C002C4B00221A70FFF7D3FC0346012B0BD193
:10082C00324B1B680133314A1360304B1B68632B0E
:10083C0002DD2E4B01221A60FFF7D4FC0346012B7C
:10084C0003D12A4B1B68284A1360082000F0AAFA2F
:10085C00402000F0A7FA042000F0A4FA202000F0B9
:10086C00A1FA1E4B04221A60204B1B681C4A136011
:10087C001C4B1B68012B1FD1154B1B68032B02DD76
:10088C00134B00221A60124B1B685A1C10490A6049
:10089C00184600F0F3F94FF4FA7000F0DBFB00F0AF
:1008AC00AFFA09E000BF08E000BF06E000BF04E0BB
:1008BC0000BF02E000BF00E000BF00BF80BD00BF72
:1008CC007000002048000020080000209C00002040
:1008DC0058000020A000002004000020A8000020E8
:1008EC00A4000020600000200C00002098000020D4
:1008FC0080B582B000AF78607B68002B28D10022D5
:10090C008021D24800F0FDFF00224FF48071CF48C7
:10091C0000F0F7FF00224FF40071CC4800F0F1FF1B
:10092C0000224FF48061C94800F0EBFF00224FF425
:10093C000061C64800F0E5FF00224FF48051C34827
:10094C0000F0DFFF01224FF40051C04800F0D9FF46
:10095C007B68012B28D101228021BC4800F0D1FFFB
:10096C0000224FF48071B94800F0CBFF00224FF405
:10097C000071B64800F0C5FF01224FF48061B34806
:10098C0000F0BFFF01224FF40061B04800F0B9FF46
:10099C0001224FF48051AD4800F0B3FF01224FF417
:1009AC000051AA4800F0ADFF7B68022B28D1002231
:1009BC008021A64800F0A5FF00224FF48071A348C7
:1009CC0000F09FFF01224FF40071A04800F099FF46
:1009DC0000224FF480619D4800F093FF00224FF4F9
:1009EC0000619A4800F08DFF01224FF48051974826
:1009FC0000F087FF00224FF40051944800F081FF73
:100A0C007B68032B28D100228021904800F079FFCD
:100A1C0000224FF480718D4800F073FF00224FF4D8
:100A2C0000718A4800F06DFF00224FF48061874806
:100A3C0000F067FF01224FF40061844800F061FF71
:100A4C0001224FF48051814800F05BFF00224FF4EB
:100A5C0000517E4800F055FF7B68042B28D1012201
:100A6C0080217A4800F04DFF00224FF480717748C6
:100A7C0000F047FF00224FF40071744800F041FF72
:100A8C0001224FF48061714800F03BFF01224FF4CA
:100A9C0000616E4800F035FF00224FF480516B4826
:100AAC0000F02FFF00224FF40051684800F029FF9E
:100ABC007B68052B28D100228021644800F021FF9F
:100ACC0001224FF48071614800F01BFF00224FF4AB
:100ADC0000715E4800F015FF00224FF480615B4806
:100AEC0000F00FFF01224FF40061584800F009FF9D
:100AFC0000224FF48051554800F003FF00224FF4C0
:100B0C000051524800F0FDFE7B68062B28D10022D4
:100B1C0080214E4800F0F5FE01224FF480714B48C5
:100B2C0000F0EFFE00224FF40071484800F0E9FE9F
:100B3C0000224FF48061454800F0E3FE00224FF4A0
:100B4C000061424800F0DDFE00224FF480513F4826
:100B5C0000F0D7FE00224FF400513C4800F0D1FECB
:100B6C007B68072B28D100228021384800F0C9FE71
:100B7C0000224FF48071354800F0C3FE00224FF480
:100B8C000071324800F0BDFE01224FF480612F4805
:100B9C0000F0B7FE01224FF400612C4800F0B1FECA
:100BAC0001224FF48051294800F0ABFE01224FF492
:100BBC000051264800F0A5FE7B68082B28D10022A6
:100BCC008021224800F09DFE00224FF480711F48C6
:100BDC0000F097FE00224FF400711C4800F091FECB
:100BEC0000224FF48061194800F08BFE00224FF474
:100BFC000061164800F085FE00224FF48051134826
:100C0C0000F07FFE00224FF40051104800F079FEF6
:100C1C007B68092B2BD1002280210C4800F071FE3F
:100C2C0000224FF48071094800F06BFE00224FF453
:100C3C000071064800F065FE00224FF48061034805
:100C4C0000F05FFE01224FF4006101E0000801405A
:100C5C00094800F056FE00224FF48051064800F07F
:100C6C0050FE00224FF40051034800F04AFE00BF32
:100C7C000837BD4680BD00BF0008014080B582B07A
:100C8C0000AF786001220121394800F03AFE0122C0
:100C9C000221374800F035FE01220421344800F0CF
:100CAC0030FE01220821324800F02BFE7B68032B1A
:100CBC0058D801A252F823F0D50C0008F70C000804
:100CCC00230D0008450D000800220121284800F0E2
:100CDC0018FE284B1B68284A82FB03129210DB1764
:100CEC00D31A1846FFF704FE3DE0002202212048EB
:100CFC0000F007FE1F4B1A681F4B83FB0213991061
:100D0C00D317C91A0B469B000B445B00D11A08463B
:100D1C00FFF7EEFD27E000220421154800F0F1FD5D
:100D2C00164B1B68144A82FB03129210DB17D31A62
:100D3C001846FFF7DDFD16E0002208210C4800F0F4
:100D4C00E0FD0C4B1A680C4B83FB02139910D31764
:100D5C00C91A0B469B000B445B00D11A0846FFF7DF
:100D6C00C7FD00E000BF00BF0837BD4680BD00BF17
:100D7C00000C0140A800002067666666A4000020F5
:100D8C0080B582B000AF78607B689BB200221946B8
:100D9C00034800F0B6FD00BF0837BD4680BD00BF5C
:100DAC000008014080B582B000AF78607B689BB2D0
:100DBC0001221946034800F0A4FD00BF0837BD46C8
:100DCC0080BD00BF0008014080B500AF0821044879
:100DDC0000F0AFFD4021024800F0ABFD00BF80BD2C
:100DEC000008014080B500AF0421044800F0A1FDCB
:100DFC002021024800F09DFD00BF80BD000801408D
:100E0C0080B500AF0221044800F093FD1021024888
:100E1C0000F08FFD00BF80BD0008014080B500AF21
:100E2C0000F06EFA00F01AF800F054F800F09EF89A
:100E3C00094801F0C3F9FFF783F94FF4FA7000F099
:100E4C0009F94FF47A7000F021F90A2000F03AF910
:100E5C00FFF7CCFAFCE700BFAC00002080B590B0E7
:100E6C0000AF07F1180328220021184601F056FDA7
:100E7C003B1D00221A605A609A60DA601A610223E4
:100E8C00BB610123BB621023FB6200237B6307F170
:100E9C001803184600F066FD0346002B01D000F045
:100EAC00D3F80F237B600023BB600023FB6000237F
:100EBC003B6100237B613B1D0021184600F0D2FFF3
:100ECC000346002B01D000F0BFF800BF4037BD46F1
:100EDC0080BD000080B586B000AF07F1080300228A
:100EEC001A605A609A60DA603B4600221A605A60B7
:100EFC001D4B4FF080421A601B4B41F63F725A60FB
:100F0C00194B00229A60184B0922DA60164B00220A
:100F1C001A61154B00229A61134801F0FFF8034641
:100F2C00002B01D000F090F84FF48053BB6007F118
:100F3C00080319460C4801F07DFA0346002B01D03A
:100F4C0000F082F800233B6000237B603B4619468F
:100F5C00054801F055FC0346002B01D000F074F855
:100F6C0000BF1837BD4680BDAC00002080B586B0F0
:100F7C0000AF07F1080300221A605A609A60DA6029
:100F8C00274B9B69264A43F004039361244B9B69CE
:100F9C0003F004037B607B68214B9B69204A43F080
:100FAC00080393611E4B9B6903F008033B603B688D
:100FBC00002243F6FE711B4800F0A3FC00220F2117
:100FCC00194800F09EFC43F6FE73BB600123FB60E6
:100FDC0000233B6102237B6107F10803194611488A
:100FEC0000F0FEFA0F23BB600123FB6000233B6182
:100FFC0002237B6107F1080319460B4800F0F0FA55
:10100C007023BB600023FB6001233B6107F10803E5
:10101C001946054800F0E4FA00BF1837BD4680BDFC
:10102C000010024000080140000C014080B582B065
:10103C0000AF786000F062F800F07AF800F092F8F7
:10104C0000BF0837BD4680BD80B400AF72B600BF8C
:10105C00FEE7000080B483B000AF78607B68084A7C
:10106C0082FB03129210DB17D31A064A1360064B4D
:10107C0000221A6000BF0C37BD4680BC704700BF11
:10108C00676666665C0000206000002080B483B058
:10109C0000AF78607B68084A82FB03129210DB1762
:1010AC00D31A064A1360064B00221A6000BF0C3795
:1010BC00BD4680BC704700BF676666666400002052
:1010CC006800002080B483B000AF78607B68084A69
:1010DC0082FB03129210DB17D31A064A1360064BDD
:1010EC0000221A6000BF0C37BD4680BC704700BFA1
:1010FC00676666666C0000207000002080B400AF4C
:10110C00094B1B68002B0BDD074B1B68013B064A88
:10111C001360054B1B68002B02DC044B01221A6088
:10112C0000BFBD4680BC70475C0000206000002002
:10113C0080B400AF094B1B68002B0BDD074B1B6801
:10114C00013B064A1360054B1B68002B02DC044B69
:10115C0001221A6000BFBD4680BC704764000020AD
:10116C006800002080B400AF094B1B68002B0BDD1E
:10117C00074B1B68013B064A1360054B1B68002B91
:10118C0002DC044B01221A6000BFBD4680BC7047D4
:10119C006C0000207000002080B485B000AF154BAF
:1011AC009B69144A43F001039361124B9B6903F052
:1011BC000103BB60BB680F4BDB690E4A43F08053E5
:1011CC00D3610C4BDB6903F080537B607B680A4B6B
:1011DC005B68FB60FB6823F0E063FB60FB6843F03B
:1011EC008063FB60044AFB68536000BF1437BD4644
:1011FC0080BC7047001002400000014080B584B0F4
:10120C0000AF78607B681B68B3F1804F13D10C4B37
:10121C00DB690B4A43F00103D361094BDB6903F033
:10122C000103FB60FB68002200211C2000F0A1F9E7
:10123C001C2000F0BAF900BF1037BD4680BD00BFBE
:10124C000010024080B400AFFEE780B400AFFEE7B0
:10125C0080B400AFFEE780B400AFFEE780B400AF0F
:10126C00FEE780B400AF00BFBD4680BC704780B4C1
:10127C0000AF00BFBD4680BC704780B400AF00BF5C
:10128C00BD4680BC704780B500AF00F07FF800BF52
:10129C0080BD000080B500AF024800F0DBFF00BF4E
:1012AC0080BD00BFAC00002080B400AF00BFBD46C5
:1012BC0080BC7047FFF7F8FF0B480C490C4A002321
:1012CC0002E0D458C4500433C4188C42F9D3094AF0
:1012DC00094C002301E013600432A242FBD301F05D
:1012EC00F9FAFFF79BFD7047000000201C0000205E
:1012FC007C2900081C000020F8000020FEE70000FC
:10130C0080B500AF084B1B68074A43F0100313600D
:10131C00032000F023F90F2000F008F8FFF73CFF42
:10132C000023184680BD00BF0020024080B582B06B
:10133C0000AF7860124B1A68124B1B7819464FF4A9
:10134C007A73B3FBF1F3B2FBF3F3184600F03BF9FD
:10135C000346002B01D001230EE07B680F2B0AD82B
:10136C00002279684FF0FF3000F003F9064A7B68E1
:10137C001360002300E0012318460837BD4680BDEA
:10138C0010000020180000201400002080B400AFD2
:10139C00054B1B781A46054B1B681344034A136014
:1013AC0000BFBD4680BC704718000020F400002030
:1013BC0080B400AF024B1B681846BD4680BC70471A
:1013CC00F400002080B485B000AF78607B6803F037
:1013DC000703FB600C4BDB68BB60BA684FF6FF037E
:1013EC001340BB60FB681A02BB68134343F0BF6336
:1013FC0043F40033BB60044ABB68D36000BF1437AE
:10140C00BD4680BC704700BF00ED00E080B400AF6B
:10141C00044BDB681B0A03F007031846BD4680BC6F
:10142C00704700BF00ED00E080B483B000AF03460E
:10143C00FB7197F90730002B0BDBFB7903F01F02D4
:10144C00064997F907305B09012000FA02F241F8CE
:10145C00232000BF0C37BD4680BC704700E100E084
:10146C0080B483B000AF03463960FB7197F9073045
:10147C00002B0ADB3B68DAB20C4997F907301201F2
:10148C00D2B20B4483F800230AE03B68DAB2084975
:10149C00FB7903F00F03043B1201D2B20B441A7612
:1014AC0000BF0C37BD4680BC704700BF00E100E0B8
:1014BC0000ED00E080B489B000AFF860B9607A60EC
:1014CC00FB6803F00703FB61FB69C3F10703042B03
:1014DC0028BF0423BB61FB690433062B02D9FB69CB
:1014EC00033B00E000237B614FF0FF32BB6902FA43
:1014FC0003F3DA43BB681A407B699A404FF0FF3123
:10150C007B6901FA03F3D9437B680B4013431846FC
:10151C002437BD4680BC704780B582B000AF786080
:10152C007B68013BB3F1807F01D301230FE00A4AB2
:10153C007B68013B53600F214FF0FF30FFF790FFAA
:10154C00054B00229A60044B07221A6000231846B0
:10155C000837BD4680BD00BF10E000E080B582B00A
:10156C0000AF78607868FFF72DFF00BF0837BD46E5
:10157C0080BD80B586B000AF0346B9607A60FB735E
:10158C0000237B61FFF742FF78617A68B96878695C
:10159C00FFF790FF024697F90F3011461846FFF7F8
:1015AC005FFF00BF1837BD4680BD80B582B000AF6D
:1015BC000346FB7197F907301846FFF735FF00BF5C
:1015CC000837BD4680BD80B582B000AF78607868C2
:1015DC00FFF7A2FF034618460837BD4680BD000042
:1015EC0080B48BB000AF7860396000237B6200233D
:1015FC003B6248E101227B6A02FA03F3FB613B6820
:10160C001B68FA691340BB61BA69FB699A4240F0E6
:10161C0037813B685B68A34A93425ED0A14A9342F0
:10162C0075D8A14A934258D09F4A93426FD89F4A8B
:10163C00934252D09D4A934269D89D4A93424CD0D2
:10164C009B4A934263D89B4A934246D0994A934211
:10165C005DD8122B2AD8122B59D801A252F823F09C
:10166C00E7160008C1160008D31600081517000865
:10167C001B1700081B1700081B1700081B17000876
:10168C001B1700081B1700081B1700081B17000866
:10169C001B1700081B1700081B1700081B17000856
:1016AC001B170008C9160008DD160008824A934271
:1016BC0013D02CE03B68DB683B6229E03B68DB68BD
:1016CC0004333B6224E03B68DB6808333B621FE079
:1016DC003B68DB680C333B621AE03B689B68002B71
:1016EC0002D104233B6213E03B689B68012B05D1BC
:1016FC0008233B627B68FA691A6109E008233B62A4
:10170C007B68FA695A6103E000233B6200E000BF8A
:10171C00BB69FF2B01D87B6801E07B6804337B61DC
:10172C00BB69FF2B02D87B6A9B0002E07B6A083BFB
:10173C009B003B617B691A680F213B6901FA03F33B
:10174C00DB431A40396A3B6901FA03F31A437B699C
:10175C001A603B685B6803F08053002B00F09080AC
:10176C00564B9B69554A43F001039361534B9B695C
:10177C0003F00103BB60BB68514A7B6A9B080233D0
:10178C0052F82330FB607B6A03F003039B000F22AB
:10179C0002FA03F3DB43FA681340FB607B68494AA7
:1017AC0093420DD07B68484A934207D07B68474AE6
:1017BC00934201D1022304E0032302E0012300E061
:1017CC0000237A6A02F0030292009340FA681343F2
:1017DC00FB603B497B6A9B080233FA6841F8232083
:1017EC003B685B6803F48013002B06D0384B9A6877
:1017FC003749BB6913438B6006E0354B9A68BB696C
:10180C00DB43334913408B603B685B6803F4001384
:10181C00002B06D02E4BDA682D49BB691343CB60E5
:10182C0006E02B4BDA68BB69DB4329491340CB60DC
:10183C003B685B6803F40033002B06D0244B5A68DA
:10184C002349BB6913434B6006E0214B5A68BB69C3
:10185C00DB431F4913404B603B685B6803F48033E8
:10186C00002B06D01A4B1A681949BB6913430B603D
:10187C0006E0174B1A68BB69DB43154913400B6034
:10188C007B6A01337B623B681A687B6A22FA03F33A
:10189C00002B7FF4AFAE00BF00BF2C37BD4680BC21
:1018AC00704700BF00003210000031100000221001
:1018BC000000211000001210000011100010024056
:1018CC000000014000080140000C014000100140E4
:1018DC000004014080B485B000AF78600B467B807B
:1018EC007B689A687B881340002B02D00123FB7322
:1018FC0001E00023FB73FB7B18461437BD4680BC0C
:10190C00704780B483B000AF78600B467B80134681
:10191C007B707B78002B03D07A887B681A6103E09C
:10192C007B881A047B681A6100BF0C37BD4680BCEB
:10193C00704780B485B000AF78600B467B807B68C5
:10194C00DB68FB607A88FB6813401A04FB68D94398
:10195C007B880B401A437B681A6100BF1437BD4665
:10196C0080BC704780B586B000AF78607B68002B78
:10197C0001D101236CE27B681B6803F00103002B8F
:10198C0000F08780924B5B6803F00C03042B0CD0A7
:10199C008F4B5B6803F00C03082B12D18C4B5B68EC
:1019AC0003F48033B3F5803F0BD1894B1B6803F4F0
:1019BC000033002B6CD07B685B68002B68D1012353
:1019CC0046E27B685B68B3F5803F06D1804B1B68B1
:1019DC007F4A43F4803313602EE07B685B68002BF6
:1019EC000CD17B4B1B687A4A23F480331360784B01
:1019FC001B68774A23F4802313601DE07B685B68C7
:101A0C00B3F5A02F0CD1724B1B68714A43F48023A1
:101A1C0013606F4B1B686E4A43F4803313600BE00A
:101A2C006B4B1B686A4A23F480331360684B1B684A
:101A3C00674A23F4802313607B685B68002B13D008
:101A4C00FFF7B6FC386108E0FFF7B2FC02463B69D1
:101A5C00D31A642B01D90323FAE15D4B1B6803F401
:101A6C000033002BF0D014E0FFF7A2FC386108E043
:101A7C00FFF79EFC02463B69D31A642B01D9032362
:101A8C00E6E1534B1B6803F40033002BF0D100E06C
:101A9C0000BF7B681B6803F00203002B63D04C4B28
:101AAC005B6803F00C03002B0BD0494B5B6803F015
:101ABC000C03082B1CD1464B5B6803F48033002BC2
:101ACC0016D1434B1B6803F00203002B05D07B6837
:101ADC001B69012B01D00123BAE13D4B1B6823F09C
:101AEC00F8027B685B69DB00394913430B603AE011
:101AFC007B681B69002B20D0364B01221A60FFF744
:101B0C0057FC386108E0FFF753FC02463B69D31AD7
:101B1C00022B01D903239BE12D4B1B6803F002031D
:101B2C00002BF0D02A4B1B6823F0F8027B685B6912
:101B3C00DB00274913430B6015E0264B00221A608B
:101B4C00FFF736FC386108E0FFF732FC02463B69D0
:101B5C00D31A022B01D903237AE11D4B1B6803F026
:101B6C000203002BF0D17B681B6803F00803002BE9
:101B7C003AD07B689B69002B19D0174B01221A6055
:101B8C00FFF716FC386108E0FFF712FC02463B69D0
:101B9C00D31A022B01D903235AE10D4B5B6A03F0D4
:101BAC000203002BF0D0012000F09AFA1CE00A4B43
:101BBC0000221A60FFF7FCFB38610FE0FFF7F8FB1F
:101BCC0002463B69D31A022B08D9032340E100BF1C
:101BDC000010024000004242800442429E4B5B6A6D
:101BEC0003F00203002BE9D17B681B6803F00403AC
:101BFC00002B00F0A6800023FB75974BDB6903F0EC
:101C0C008053002B0DD1944BDB69934A43F08053E6
:101C1C00D361914BDB6903F08053BB60BB6801233C
:101C2C00FB758E4B1B6803F48073002B18D18B4B08
:101C3C001B688A4A43F480731360FFF7B9FB386161
:101C4C0008E0FFF7B5FB02463B69D31A642B01D9B8
:101C5C000323FDE0814B1B6803F48073002BF0D051
:101C6C007B68DB68012B06D17B4B1B6A7A4A43F0FD
:101C7C00010313622DE07B68DB68002B0CD1764BE3
:101C8C001B6A754A23F001031362734B1B6A724A79
:101C9C0023F0040313621CE07B68DB68052B0CD17A
:101CAC006D4B1B6A6C4A43F0040313626A4B1B6A4C
:101CBC00694A43F0010313620BE0674B1B6A664AE7
:101CCC0023F001031362644B1B6A634A23F0040381
:101CDC0013627B68DB68002B15D0FFF769FB38615A
:101CEC000AE0FFF765FB02463B69D31A41F28832E2
:101CFC00934201D90323ABE0574B1B6A03F0020359
:101D0C00002BEED014E0FFF753FB38610AE0FFF72D
:101D1C004FFB02463B69D31A41F28832934201D9F8
:101D2C00032395E04C4B1B6A03F00203002BEED10E
:101D3C00FB7D012B05D1484BDB69474A23F08053CF
:101D4C00D3617B68DB69002B00F08180424B5B68C0
:101D5C0003F00C03082B61D07B68DB69022B46D1A6
:101D6C003F4B00221A60FFF723FB386108E0FFF7B6
:101D7C001FFB02463B69D31A022B01D9032367E0F0
:101D8C00354B1B6803F00073002BF0D17B681B6A8A
:101D9C00B3F5803F08D1304B5B6823F400327B688D
:101DAC009B682D4913434B602B4B5B6823F47412D7
:101DBC007B68196A7B685B6A0B43274913434B604A
:101DCC00274B01221A60FFF7F3FA386108E0FFF79E
:101DDC00EFFA02463B69D31A022B01D9032337E0F1
:101DEC001D4B1B6803F00073002BF0D02FE01C4B35
:101DFC0000221A60FFF7DCFA386108E0FFF7D8FA26
:101E0C0002463B69D31A022B01D9032320E0124B63
:101E1C001B6803F00073002BF0D118E07B68DB69C2
:101E2C00012B01D1012313E00B4B5B68FB60FB68BA
:101E3C0003F480327B681B6A9A4206D1FB6803F478
:101E4C0070127B685B6A9A4201D0012300E0002388
:101E5C0018461837BD4680BD001002400070004087
:101E6C006000424280B584B000AF786039607B6816
:101E7C00002B01D10123D0E06A4B1B6803F0070350
:101E8C003A689A4210D9674B1B6823F007026549E0
:101E9C003B6813430B60634B1B6803F007033A6802
:101EAC009A4201D00123B8E07B681B6803F002035F
:101EBC00002B20D07B681B6803F00403002B05D09B
:101ECC00594B5B68584A43F4E06353607B681B686A
:101EDC0003F00803002B05D0534B5B68524A43F4C4
:101EEC0060535360504B5B6823F0F0027B689B6837
:101EFC004D4913434B607B681B6803F00103002BB7
:101F0C0040D07B685B68012B07D1474B1B6803F4FF
:101F1C000033002B15D101237FE07B685B68022B1B
:101F2C0007D1414B1B6803F00073002B09D101232F
:101F3C0073E03D4B1B6803F00203002B01D101231E
:101F4C006BE0394B5B6823F003027B685B683649B6
:101F5C0013434B60FFF72CFAF8600AE0FFF728FAFE
:101F6C000246FB68D31A41F28832934201D903230B
:101F7C0053E02D4B5B6803F00C027B685B689B00A5
:101F8C009A42EBD1274B1B6803F007033A689A423D
:101F9C0010D2244B1B6823F0070222493B681343E1
:101FAC000B60204B1B6803F007033A689A4201D080
:101FBC00012332E07B681B6803F00403002B08D07C
:101FCC00194B5B6823F4E0627B68DB6816491343AA
:101FDC004B607B681B6803F00803002B09D0124B85
:101FEC005B6823F460527B681B69DB000E4913436A
:101FFC004B6000F021F802460B4B5B681B0903F0A9
:10200C000F030A49CB5C22FA03F3094A1360094B0C
:10201C001B681846FFF78AF9002318461037BD468F
:10202C0080BD00BF00200240001002405029000873
:10203C00100000201400002080B487B000AF0023F3
:10204C00FB600023BB6000237B6100237B600023CB
:10205C003B611E4B5B68FB60FB6803F00C03042BBD
:10206C0002D0082B03D027E0194B3B6127E0FB681B
:10207C009B0C03F00F03174AD35C7B60FB6803F4E3
:10208C008033002B10D0114B5B685B0C03F0010309
:10209C00114AD35CBB607B680D4A02FB03F2BB6840
:1020AC00B2FBF3F37B6104E07B680C4A02FB03F3A5
:1020BC007B617B693B6102E0054B3B6100BF3B6987
:1020CC0018461C37BD4680BC704700BF001002404C
:1020DC0000127A00602900087029000800093D00F0
:1020EC0080B485B000AF78600A4B1B680A4AA2FB2B
:1020FC0003235B0A7A6802FB03F3FB6000BFFB68F7
:10210C005A1EFA60002BF9D100BF00BF1437BD4630
:10211C0080BC704710000020D34D621080B582B097
:10212C0000AF78607B68002B01D1012341E07B6814
:10213C0093F83D30DBB2002B06D17B68002283F88C
:10214C003C207868FFF75AF87B68022283F83D2020
:10215C007B681A687B6804331946104600F056FAFF
:10216C007B68012283F846207B68012283F83E209D
:10217C007B68012283F83F207B68012283F8402092
:10218C007B68012283F841207B68012283F842207E
:10219C007B68012283F843207B68012283F844206A
:1021AC007B68012283F845207B68012283F83D205F
:1021BC00002318460837BD4680BD000080B485B0AA
:1021CC0000AF78607B6893F83D30DBB2012B01D017
:1021DC00012335E07B68022283F83D207B681B6875
:1021EC00DA687B681B6842F00102DA607B681B6866
:1021FC00164A934209D07B681B68B3F1804F04D018
:10220C007B681B68124A934211D17B681B689B68E0
:10221C0003F00703FB60FB68062B10D07B681B6880
:10222C001A687B681B6842F001021A6007E07B6841
:10223C001B681A687B681B6842F001021A60002355
:10224C0018461437BD4680BC704700BF002C0140B7
:10225C000004004080B584B000AF78607B681B68D8
:10226C00DB68FB607B681B681B69BB60BB6803F0A9
:10227C000203002B20D0FB6803F00203002B1BD0C1
:10228C007B681B686FF002021A617B6801221A7767
:10229C007B681B689B6903F00303002B03D07868F1
:1022AC0000F098F905E0786800F08BF9786800F098
:1022BC009AF97B6800221A77BB6803F00403002BA1
:1022CC0020D0FB6803F00403002B1BD07B681B6839
:1022DC006FF004021A617B6802221A777B681B6814
:1022EC009B6903F44073002B03D0786800F072F9FB
:1022FC0005E0786800F065F9786800F074F97B689F
:10230C0000221A77BB6803F00803002B20D0FB686F
:10231C0003F00803002B1BD07B681B686FF00802CE
:10232C001A617B6804221A777B681B68DB6903F0EF
:10233C000303002B03D0786800F04CF905E07868B3
:10234C0000F03FF9786800F04EF97B6800221A77AC
:10235C00BB6803F01003002B20D0FB6803F01003C4
:10236C00002B1BD07B681B686FF010021A617B6816
:10237C0008221A777B681B68DB6903F44073002B17
:10238C0003D0786800F026F905E0786800F019F9B8
:10239C00786800F028F97B6800221A77BB6803F094
:1023AC000103002B0CD0FB6803F00103002B07D0BA
:1023BC007B681B686FF001021A617868FEF736FEC5
:1023CC00BB6803F08003002B0CD0FB6803F0800388
:1023DC00002B07D07B681B686FF080021A6178684D
:1023EC0000F06FFABB6803F04003002B0CD0FB68C5
:1023FC0003F04003002B07D07B681B686FF0400292
:10240C001A61786800F0F8F8BB6803F02003002B21
:10241C000CD0FB6803F02003002B07D07B681B68F3
:10242C006FF020021A61786800F042FA00BF103792
:10243C00BD4680BD80B584B000AF786039600023A4
:10244C00FB737B6893F83C30012B01D10223B4E081
:10245C007B68012283F83C207B68022283F83D20B4
:10246C007B681B689B68BB60BB6823F07703BB6011
:10247C00BB6823F47F43BB607B681B68BA689A60B7
:10248C003B681B68B3F5005F3ED0B3F5005F00F20C
:10249C008780B3F5805F00F08680B3F5805F7FD8CE
:1024AC00702B1AD0702B7BD8602B50D0602B77D828
:1024BC00502B3CD0502B73D8402B58D0402B6FD87E
:1024CC00302B64D0302B6BD8202B60D0202B67D8CE
:1024DC00002B5CD0102B5AD062E07B6818683B68EC
:1024EC0099683B685A683B68DB6800F06AF97B685E
:1024FC001B689B68BB60BB6843F07703BB607B6861
:10250C001B68BA689A604FE07B6818683B689968EA
:10251C003B685A683B68DB6800F053F97B681B68C2
:10252C009A687B681B6842F480429A603CE07B6846
:10253C0018683B6859683B68DB681A4600F0CAF8B3
:10254C007B681B685021184600F021F92CE07B6851
:10255C0018683B6859683B68DB681A4600F0E8F875
:10256C007B681B686021184600F011F91CE07B6841
:10257C0018683B6859683B68DB681A4600F0AAF893
:10258C007B681B684021184600F001F90CE07B6861
:10259C001A683B681B681946104600F0F8F803E00F
:1025AC000123FB7300E000BF7B68012283F83D2010
:1025BC007B68002283F83C20FB7B18461037BD4615
:1025CC0080BD80B483B000AF786000BF0C37BD46CF
:1025DC0080BC704780B483B000AF786000BF0C370C
:1025EC00BD4680BC704780B483B000AF786000BF3C
:1025FC000C37BD4680BC704780B483B000AF7860A8
:10260C0000BF0C37BD4680BC7047000080B485B05D
:10261C0000AF786039607B681B68FB607B682B4A75
:10262C00934207D07B68B3F1804F03D07B68284A74
:10263C00934208D1FB6823F07003FB603B685B6836
:10264C00FA681343FB607B68204A934207D07B688F
:10265C00B3F1804F03D07B681D4A934208D1FB68CD
:10266C0023F44073FB603B68DB68FA681343FB6040
:10267C00FB6823F080023B685B691343FB607B685B
:10268C00FA681A603B689A687B68DA623B681A6879
:10269C007B689A627B680D4A934203D13B681A6946
:1026AC007B681A637B6801225A617B681B6903F0A3
:1026BC000103002B05D07B681B6923F001027B68AA
:1026CC001A6100BF1437BD4680BC7047002C014016
:1026DC000004004080B487B000AFF860B9607A6045
:1026EC00FB681B6A7B61FB681B6A23F00102FB68B9
:1026FC001A62FB689B693B613B6923F0F0033B6109
:10270C007B681B013A6913433B617B6923F00A0325
:10271C007B617A69BB6813437B61FB683A699A6198
:10272C00FB687A691A6200BF1C37BD4680BC7047D3
:10273C0080B487B000AFF860B9607A60FB681B6A40
:10274C007B61FB681B6A23F01002FB681A62FB6852
:10275C009B693B613B6923F470433B617B681B03C2
:10276C003A6913433B617B6923F0A0037B61BB682F
:10277C001B017A6913437B61FB683A699A61FB68B8
:10278C007A691A6200BF1C37BD4680BC704780B4A2
:10279C0085B000AF786039607B689B68FB60FB6834
:1027AC0023F07003FB603A68FB68134343F00703A4
:1027BC00FB607B68FA689A6000BF1437BD4680BC2A
:1027CC00704780B487B000AFF860B9607A603B6046
:1027DC00FB689B687B617B6923F47F437B613B686F
:1027EC001A027B681A43BB6813437A6913437B61F3
:1027FC00FB687A699A6000BF1C37BD4680BC704785
:10280C0080B485B000AF786039607B6893F83C3059
:10281C00012B01D1022341E07B68012283F83C208B
:10282C007B68022283F83D207B681B685B68FB6039
:10283C007B681B689B68BB60FB6823F07003FB60C4
:10284C003B681B68FA681343FB607B681B68FA687B
:10285C005A607B681B68144A934209D07B681B68DA
:10286C00B3F1804F04D07B681B68104A93420CD1A3
:10287C00BB6823F08003BB603B685B68BA6813439A
:10288C00BB607B681B68BA689A607B68012283F81E
:10289C003D207B68002283F83C2000231846143727
:1028AC00BD4680BC704700BF002C014000040040B6
:1028BC0080B483B000AF786000BF0C37BD4680BCDD
:1028CC00704780B483B000AF786000BF0C37BD4652
:1028DC0080BC704770B500260C4D0D4C641BA410C9
:1028EC00A64209D100F022F800260A4D0A4C641BBE
:1028FC00A410A64205D170BD55F8043B984701368B
:10290C00EEE755F8043B98470136F2E774290008C6
:10291C007429000874290008782900080346024429
:10292C00934200D1704703F8011BF9E7F8B500BFDB
:10293C00F8BC08BC9E467047F8B500BFF8BC08BC94
:04294C009E467047EC
:10295000000000000000000001020304060708094F
:1029600002030405060708090A0B0C0D0E0F1010D0
:042970000102000060
:042974003101000825
:042978000D01000845
:10297C00020000000500000002000000030000003F
:0C298C0000127A001000000001000000A2
:04000005080012C11C
:00000001FF
