:020000040800F2
:1000000000280020E1120008711200087712000891
:100010007D12000883120008891200080000000009
:100020000000000000000000000000008F12000827
:100030009B12000800000000A7120008B31200087D
:1000400029130008291300082913000829130008A0
:100050002913000829130008291300082913000890
:100060002913000829130008291300082913000880
:100070002913000829130008291300082913000870
:100080002913000829130008291300082913000860
:100090002913000829130008291300082913000850
:1000A0002913000829130008291300082913000840
:1000B000C1120008291300080000000029130008DD
:1000C00029130008000000000000000029130008A8
:1000D0000000000029130008291300080000000098
:1000E0002913000829130008291300080000000044
:1000F0000000000000000000000000000000000000
:0C01000000000000000000005FF808F1A3
:10010C0010B5054C237833B9044B13B10448AFF345
:10011C0000800123237010BD1C0000200000000093
:10012C005829000808B5034B1BB103490348AFF32A
:10013C00008008BD000000002000002058290008A5
:10014C0080B483B000AF00237B6018E0104A7B685A
:10015C00002142F8231000233B600AE00D497B6824
:10016C009A003B681344012241F823203B68013379
:10017C003B603B68022BF1DD7B6801337B607B6865
:10018C00022BE3DD00BF00BF0C37BD4680BC7047BF
:10019C00380000208000002080B400AF064B1B68A4
:1001AC00012B04D1044B00221A60012300E0002330
:1001BC001846BD4680BC70473800002080B400AFA4
:1001CC00064B5B68012B04D1044B00225A600123BF
:1001DC0000E000231846BD4680BC70473800002064
:1001EC0080B400AF064B9B68012B04D1044B00225A
:1001FC009A60012300E000231846BD4680BC70477E
:10020C003800002080B582B000AF00237B60ACE0EA
:10021C005A4A7B681B01134404331A6857497B689C
:10022C001B010B441A60554A7B681B0113440833AD
:10023C001A6852497B681B010B4404331A607B68B3
:10024C00002B0CD110214E4801F054FB03461946EB
:10025C004A4A7B681B011344083319601EE07B6813
:10026C00012B0CD12021464801F044FB03461946D2
:10027C00424A7B681B011344083319600EE07B680B
:10028C00022B0BD140213E4801F034FB03461946AA
:10029C003A4A7B681B01134408331960374A7B6860
:1002AC001B0113441A6835497B681B010B4404334A
:1002BC001B689A4256D1314A7B681B0113440433A4
:1002CC001A682E497B681B010B4408331B689A4241
:1002DC0048D12A4A7B681B0113440C331A682749FE
:1002EC007B681B010B4408331B689A4221D0234ABC
:1002FC007B681B01134408331A6820497B681B0177
:10030C000B440C331A601D4A7B681B0113440833E1
:10031C001B68002B26D11B4A7B68012142F8231055
:10032C00194A7B68002142F82310184B00221A60EE
:10033C0018E0124A7B681B01134408331B68002B1E
:10034C0010D1124B1B680133104A13600F4B1B6802
:10035C00C72B07DD0C4A7B68012142F823100B4B9D
:10036C0000221A607B6801337B607B68022B7FF76D
:10037C004FAF00BF00BF0837BD4680BD80000020D6
:10038C00000C0140380000207400002044000020C4
:10039C0080B500AF994B1B78042B00F2938201A21D
:1003AC0052F823F0C50300085D0400084506000858
:1003BC0003070008C3070008914B1B68012B04D1ED
:1003CC00FFF720FF0A2000F08DFEFFF7E5FE034645
:1003DC00012B18D1894B01221A708A4B00221A600A
:1003EC00082000F0EFFC402000F0ECFC042000F0B2
:1003FC00E9FC202000F0E6FC022000F0E3FC1020D9
:10040C0000F0E0FC69E2804B58221A607F4B5822C6
:10041C001A607F4B1B68012B40F05682794B1B688E
:10042C00032B02DD774B00221A60764B1B685A1C9B
:10043C0074490A60184600F031FC4FF4FA7000F071
:10044C0019FE00F0D1FC00F0DDFC00F0E9FC3BE211
:10045C006B4B1B68012B04D1FFF7D4FE0A2000F074
:10046C0041FEFFF799FE0346012B10D1634B02228C
:10047C001A70684B1B68684A1360082000F0A2FCD5
:10048C00402000F09FFC5F4B00221A6025E2634B7A
:10049C001B68012B40F09A80614B1B68002B3DD1EF
:1004AC00604B1B68002B10D1082000F079FC042055
:1004BC0000F088FC022000F085FC5A4B02221A60E6
:1004CC00544B1B68564A136028E0564B1B68012B93
:1004DC0010D1082000F076FC042000F061FC022012
:1004EC0000F070FC4F4B00221A604F4B1B684C4ABB
:1004FC00136013E04B4B1B68022B0FD1082000F04C
:10050C0061FC042000F05EFC022000F049FC454B2D
:10051C0001221A60454B1B68414A1360444B1B680F
:10052C00002B3DD1434B1B68002B10D1402000F019
:10053C0037FC202000F046FC102000F043FC3D4B23
:10054C0002221A60334B1B68394A136028E0394B7E
:10055C001B68012B10D1402000F034FC202000F04F
:10056C001FFC102000F02EFC324B00221A602E4B88
:10057C001B682F4A136013E02E4B1B68022B0FD104
:10058C00402000F01FFC202000F01CFC102000F08C
:10059C0007FC284B01221A60244B1B68244A136069
:1005AC001F4B1B68013B1E4A1360214B1B68013B10
:1005BC001F4A13601A4B1B68134A13601C4B1B68B1
:1005CC00124A13604FF47A7000F070FD104B1B68E8
:1005DC00012B40F07B810B4B1B68032B02DD094B7D
:1005EC0000221A60074B1B685A1C06490A60184601
:1005FC0000F054FBC82000F03DFD67E148000020EE
:10060C007000002058000020C0000020BC0000201A
:10061C006000002004000020B800002068000020CA
:10062C00500000204C000020080000200C0000208E
:10063C005400002000000020A94B1B68012B04D1A2
:10064C00FFF7E0FD0A2000F04DFDFFF7A5FD034686
:10065C00012B09D1A34B03221A70A34B1B68A34A8D
:10066C001360A34B00221A60FFF7A8FD0346012B71
:10067C000BD1A04B1B6801339E4A13609D4B1B682A
:10068C00632B02DD9B4B01221A60FFF7A9FD034689
:10069C00012B03D1974B1B68974A1360022000F083
:1006AC0091FB102000F08EFB042000F08BFB20202F
:1006BC0000F088FB914B02221A608E4B1B68904A0B
:1006CC001360904B1B68012B40F00281884B1B6818
:1006DC00032B02DD864B00221A60854B1B685A1CCB
:1006EC0083490A60184600F0D9FAC82000F0C2FC11
:1006FC0000F07AFBECE07A4B1B68012B04D1FFF77E
:10070C0081FD0A2000F0EEFCFFF746FD0346012BAD
:10071C000AD1744B04221A707B4B1B687B4A136002
:10072C00734B00221A60D8E0FFF748FD0346012BFB
:10073C000BD16E4B1B6801336C4A13606B4B1B68FF
:10074C00632B02DD694B01221A60FFF749FD03465A
:10075C00012B03D1654B1B68634A1360082000F022
:10076C0031FB402000F02EFB022000F02BFB102070
:10077C0000F028FB614B03221A605C4B1B68604A3B
:10078C001360604B1B68012B40F0A480584B1B6816
:10079C00032B02DD564B00221A60554B1B685A1C6A
:1007AC0053490A60184600F079FAC82000F062FC40
:1007BC0000F028FB8EE04A4B1B68012B04D1FFF79D
:1007CC0021FD0A2000F08EFCFFF7E6FC0346012B0E
:1007DC0032D14D4B1A68444B1B681A44464B1B686C
:1007EC009A4218D13F4B01221A70414B00221A60D9
:1007FC00082000F0E7FA402000F0E4FA042000F0B2
:10080C00E1FA202000F0DEFA022000F0DBFA1020E2
:10081C0000F0D8FA61E0334B02221A70364B1B6899
:10082C00344A1360082000F0CDFA402000F0CAFAD8
:10083C002F4B00221A6050E0FFF7C0FC0346012B3F
:10084C000BD1324B1B680133304A13602F4B1B68A2
:10085C00632B02DD2D4B01221A60FFF7C1FC03460E
:10086C00012B03D1294B1B68274A1360082000F089
:10087C00A9FA402000F0A6FA042000F0A3FA2020E8
:10088C0000F0A0FA1D4B04221A60204B1B681C4A76
:10089C0013601C4B1B68012B1ED1154B1B68032BC3
:1008AC0002DD134B00221A60114B1B685A1C1049B5
:1008BC000A60184600F0F2F9C82000F0DBFB00F0EB
:1008CC00AFFA09E000BF08E000BF06E000BF04E09B
:1008DC0000BF02E000BF00E000BF00BF80BD00BF52
:1008EC00700000204800002008000020B400002008
:1008FC0058000020B800002004000020C000002098
:10090C00BC000020600000200C000020B000002083
:10091C0080B582B000AF78607B68002B28D10022B4
:10092C008021D24800F0FDFF00224FF48071CF48A7
:10093C0000F0F7FF00224FF40071CC4800F0F1FFFB
:10094C0000224FF48061C94800F0EBFF00224FF405
:10095C000061C64800F0E5FF00224FF48051C34807
:10096C0000F0DFFF01224FF40051C04800F0D9FF26
:10097C007B68012B28D101228021BC4800F0D1FFDB
:10098C0000224FF48071B94800F0CBFF00224FF4E5
:10099C000071B64800F0C5FF01224FF48061B348E6
:1009AC0000F0BFFF01224FF40061B04800F0B9FF26
:1009BC0001224FF48051AD4800F0B3FF01224FF4F7
:1009CC000051AA4800F0ADFF7B68022B28D1002211
:1009DC008021A64800F0A5FF00224FF48071A348A7
:1009EC0000F09FFF01224FF40071A04800F099FF26
:1009FC0000224FF480619D4800F093FF00224FF4D9
:100A0C0000619A4800F08DFF01224FF48051974805
:100A1C0000F087FF00224FF40051944800F081FF52
:100A2C007B68032B28D100228021904800F079FFAD
:100A3C0000224FF480718D4800F073FF00224FF4B8
:100A4C0000718A4800F06DFF00224FF480618748E6
:100A5C0000F067FF01224FF40061844800F061FF51
:100A6C0001224FF48051814800F05BFF00224FF4CB
:100A7C0000517E4800F055FF7B68042B28D10122E1
:100A8C0080217A4800F04DFF00224FF480717748A6
:100A9C0000F047FF00224FF40071744800F041FF52
:100AAC0001224FF48061714800F03BFF01224FF4AA
:100ABC0000616E4800F035FF00224FF480516B4806
:100ACC0000F02FFF00224FF40051684800F029FF7E
:100ADC007B68052B28D100228021644800F021FF7F
:100AEC0001224FF48071614800F01BFF00224FF48B
:100AFC0000715E4800F015FF00224FF480615B48E6
:100B0C0000F00FFF01224FF40061584800F009FF7C
:100B1C0000224FF48051554800F003FF00224FF49F
:100B2C000051524800F0FDFE7B68062B28D10022B4
:100B3C0080214E4800F0F5FE01224FF480714B48A5
:100B4C0000F0EFFE00224FF40071484800F0E9FE7F
:100B5C0000224FF48061454800F0E3FE00224FF480
:100B6C000061424800F0DDFE00224FF480513F4806
:100B7C0000F0D7FE00224FF400513C4800F0D1FEAB
:100B8C007B68072B28D100228021384800F0C9FE51
:100B9C0000224FF48071354800F0C3FE00224FF460
:100BAC000071324800F0BDFE01224FF480612F48E5
:100BBC0000F0B7FE01224FF400612C4800F0B1FEAA
:100BCC0001224FF48051294800F0ABFE01224FF472
:100BDC000051264800F0A5FE7B68082B28D1002286
:100BEC008021224800F09DFE00224FF480711F48A6
:100BFC0000F097FE00224FF400711C4800F091FEAB
:100C0C0000224FF48061194800F08BFE00224FF453
:100C1C000061164800F085FE00224FF48051134805
:100C2C0000F07FFE00224FF40051104800F079FED6
:100C3C007B68092B2BD1002280210C4800F071FE1F
:100C4C0000224FF48071094800F06BFE00224FF433
:100C5C000071064800F065FE00224FF480610348E5
:100C6C0000F05FFE01224FF4006101E0000801403A
:100C7C00094800F056FE00224FF48051064800F05F
:100C8C0050FE00224FF40051034800F04AFE00BF12
:100C9C000837BD4680BD00BF0008014080B582B05A
:100CAC0000AF786001220121394800F03AFE0122A0
:100CBC000221374800F035FE01220421344800F0AF
:100CCC0030FE01220821324800F02BFE7B68032BFA
:100CDC0058D801A252F823F0F50C0008170D0008A3
:100CEC00430D0008650D000800220121284800F082
:100CFC0018FE284B1B68284A82FB03129210DB1744
:100D0C00D31A1846FFF704FE3DE0002202212048CA
:100D1C0000F007FE1F4B1A681F4B83FB0213991040
:100D2C00D317C91A0B469B000B445B00D11A08461B
:100D3C00FFF7EEFD27E000220421154800F0F1FD3D
:100D4C00164B1B68144A82FB03129210DB17D31A42
:100D5C001846FFF7DDFD16E0002208210C4800F0D4
:100D6C00E0FD0E4B1A680C4B83FB02139910D31742
:100D7C00C91A0B469B000B445B00D11A0846FFF7BF
:100D8C00C7FD00E000BF00BF0837BD4680BD00BFF7
:100D9C00000C0140C000002067666666BC000020A5
:100DAC0080B582B000AF78607B689BB20022194698
:100DBC00034800F0B6FD00BF0837BD4680BD00BF3C
:100DCC000008014080B582B000AF78607B689BB2B0
:100DDC0001221946034800F0A4FD00BF0837BD46A8
:100DEC0080BD00BF0008014080B500AF0821044859
:100DFC0000F0AFFD4021024800F0ABFD00BF80BD0C
:100E0C000008014080B500AF0421044800F0A1FDAA
:100E1C002021024800F09DFD00BF80BD000801406C
:100E2C0080B500AF0221044800F093FD1021024868
:100E3C0000F08FFD00BF80BD0008014080B500AF01
:100E4C0000F06EFA00F01AF800F054F800F09EF87A
:100E5C00094801F0C3F9FFF773F94FF4FA7000F089
:100E6C0009F94FF47A7000F021F90A2000F03AF9F0
:100E7C00FFF78EFAFCE700BFC400002080B590B0ED
:100E8C0000AF07F1180328220021184601F056FD87
:100E9C003B1D00221A605A609A60DA601A610223C4
:100EAC00BB610123BB621023FB6200237B6307F150
:100EBC001803184600F066FD0346002B01D000F025
:100ECC00D3F80F237B600023BB600023FB6000235F
:100EDC003B6100237B613B1D0021184600F0D2FFD3
:100EEC000346002B01D000F0BFF800BF4037BD46D1
:100EFC0080BD000080B586B000AF07F1080300226A
:100F0C001A605A609A60DA603B4600221A605A6096
:100F1C001D4B4FF080421A601B4B41F63F725A60DA
:100F2C00194B00229A60184B0922DA60164B0022EA
:100F3C001A61154B00229A61134801F0FFF8034621
:100F4C00002B01D000F090F84FF48053BB6007F1F8
:100F5C00080319460C4801F07DFA0346002B01D01A
:100F6C0000F082F800233B6000237B603B4619466F
:100F7C00054801F055FC0346002B01D000F074F835
:100F8C0000BF1837BD4680BDC400002080B586B0B8
:100F9C0000AF07F1080300221A605A609A60DA6009
:100FAC00274B9B69264A43F004039361244B9B69AE
:100FBC0003F004037B607B68214B9B69204A43F060
:100FCC00080393611E4B9B6903F008033B603B686D
:100FDC00002243F6FE711B4800F0A3FC00220F21F7
:100FEC00194800F09EFC43F6FE73BB600123FB60C6
:100FFC0000233B6102237B6107F10803194611486A
:10100C0000F0FEFA0F23BB600123FB6000233B6161
:10101C0002237B6107F1080319460B4800F0F0FA34
:10102C007023BB600023FB6001233B6107F10803C5
:10103C001946054800F0E4FA00BF1837BD4680BDDC
:10104C000010024000080140000C014080B582B045
:10105C0000AF786000F062F800F07AF800F092F8D7
:10106C0000BF0837BD4680BD80B400AF72B600BF6C
:10107C00FEE7000080B483B000AF78607B68084A5C
:10108C0082FB03129210DB17D31A064A1360064B2D
:10109C0000221A6000BF0C37BD4680BC704700BFF1
:1010AC00676666665C0000206000002080B483B038
:1010BC0000AF78607B68084A82FB03129210DB1742
:1010CC00D31A064A1360064B00221A6000BF0C3775
:1010DC00BD4680BC704700BF676666666400002032
:1010EC006800002080B483B000AF78607B68084A49
:1010FC0082FB03129210DB17D31A064A1360064BBD
:10110C0000221A6000BF0C37BD4680BC704700BF80
:10111C00676666666C0000207000002080B400AF2B
:10112C00094B1B68002B0BDD074B1B68013B064A68
:10113C001360054B1B68002B02DC044B01221A6068
:10114C0000BFBD4680BC70475C00002060000020E2
:10115C0080B400AF094B1B68002B0BDD074B1B68E1
:10116C00013B064A1360054B1B68002B02DC044B49
:10117C0001221A6000BFBD4680BC7047640000208D
:10118C006800002080B400AF094B1B68002B0BDDFE
:10119C00074B1B68013B064A1360054B1B68002B71
:1011AC0002DC044B01221A6000BFBD4680BC7047B4
:1011BC006C0000207000002080B485B000AF154B8F
:1011CC009B69144A43F001039361124B9B6903F032
:1011DC000103BB60BB680F4BDB690E4A43F08053C5
:1011EC00D3610C4BDB6903F080537B607B680A4B4B
:1011FC005B68FB60FB6823F0E063FB60FB6843F01B
:10120C008063FB60044AFB68536000BF1437BD4623
:10121C0080BC7047001002400000014080B584B0D3
:10122C0000AF78607B681B68B3F1804F13D10C4B17
:10123C00DB690B4A43F00103D361094BDB6903F013
:10124C000103FB60FB68002200211C2000F0A1F9C7
:10125C001C2000F0BAF900BF1037BD4680BD00BF9E
:10126C000010024080B400AFFEE780B400AFFEE790
:10127C0080B400AFFEE780B400AFFEE780B400AFEF
:10128C00FEE780B400AF00BFBD4680BC704780B4A1
:10129C0000AF00BFBD4680BC704780B400AF00BF3C
:1012AC00BD4680BC704780B500AF00F07FF800BF32
:1012BC0080BD000080B500AF024800F0DBFF00BF2E
:1012CC0080BD00BFC400002080B400AF00BFBD468D
:1012DC0080BC7047FFF7F8FF0B480C490C4A002301
:1012EC0002E0D458C4500433C4188C42F9D3094AD0
:1012FC00094C002301E013600432A242FBD301F03D
:10130C00F9FAFFF79BFD7047000000201C0000203D
:10131C009C2900081C00002010010020FEE70000A2
:10132C0080B500AF084B1B68074A43F010031360ED
:10133C00032000F023F90F2000F008F8FFF73CFF22
:10134C000023184680BD00BF0020024080B582B04B
:10135C0000AF7860124B1A68124B1B7819464FF489
:10136C007A73B3FBF1F3B2FBF3F3184600F03BF9DD
:10137C000346002B01D001230EE07B680F2B0AD80B
:10138C00002279684FF0FF3000F003F9064A7B68C1
:10139C001360002300E0012318460837BD4680BDCA
:1013AC0010000020180000201400002080B400AFB2
:1013BC00054B1B781A46054B1B681344034A1360F4
:1013CC0000BFBD4680BC7047180000200C010020F7
:1013DC0080B400AF024B1B681846BD4680BC7047FA
:1013EC000C01002080B485B000AF78607B6803F0FE
:1013FC000703FB600C4BDB68BB60BA684FF6FF035E
:10140C001340BB60FB681A02BB68134343F0BF6315
:10141C0043F40033BB60044ABB68D36000BF14378D
:10142C00BD4680BC704700BF00ED00E080B400AF4B
:10143C00044BDB681B0A03F007031846BD4680BC4F
:10144C00704700BF00ED00E080B483B000AF0346EE
:10145C00FB7197F90730002B0BDBFB7903F01F02B4
:10146C00064997F907305B09012000FA02F241F8AE
:10147C00232000BF0C37BD4680BC704700E100E064
:10148C0080B483B000AF03463960FB7197F9073025
:10149C00002B0ADB3B68DAB20C4997F907301201D2
:1014AC00D2B20B4483F800230AE03B68DAB2084955
:1014BC00FB7903F00F03043B1201D2B20B441A76F2
:1014CC0000BF0C37BD4680BC704700BF00E100E098
:1014DC0000ED00E080B489B000AFF860B9607A60CC
:1014EC00FB6803F00703FB61FB69C3F10703042BE3
:1014FC0028BF0423BB61FB690433062B02D9FB69AB
:10150C00033B00E000237B614FF0FF32BB6902FA22
:10151C0003F3DA43BB681A407B699A404FF0FF3102
:10152C007B6901FA03F3D9437B680B4013431846DC
:10153C002437BD4680BC704780B582B000AF786060
:10154C007B68013BB3F1807F01D301230FE00A4A92
:10155C007B68013B53600F214FF0FF30FFF790FF8A
:10156C00054B00229A60044B07221A600023184690
:10157C000837BD4680BD00BF10E000E080B582B0EA
:10158C0000AF78607868FFF72DFF00BF0837BD46C5
:10159C0080BD80B586B000AF0346B9607A60FB733E
:1015AC0000237B61FFF742FF78617A68B96878693C
:1015BC00FFF790FF024697F90F3011461846FFF7D8
:1015CC005FFF00BF1837BD4680BD80B582B000AF4D
:1015DC000346FB7197F907301846FFF735FF00BF3C
:1015EC000837BD4680BD80B582B000AF78607868A2
:1015FC00FFF7A2FF034618460837BD4680BD000022
:10160C0080B48BB000AF7860396000237B6200231C
:10161C003B6248E101227B6A02FA03F3FB613B68FF
:10162C001B68FA691340BB61BA69FB699A4240F0C6
:10163C0037813B685B68A34A93425ED0A14A9342D0
:10164C0075D8A14A934258D09F4A93426FD89F4A6B
:10165C00934252D09D4A934269D89D4A93424CD0B2
:10166C009B4A934263D89B4A934246D0994A9342F1
:10167C005DD8122B2AD8122B59D801A252F823F07C
:10168C0007170008E1160008F316000835170008C4
:10169C003B1700083B1700083B1700083B170008D6
:1016AC003B1700083B1700083B1700083B170008C6
:1016BC003B1700083B1700083B1700083B170008B6
:1016CC003B170008E9160008FD160008824A9342F1
:1016DC0013D02CE03B68DB683B6229E03B68DB689D
:1016EC0004333B6224E03B68DB6808333B621FE059
:1016FC003B68DB680C333B621AE03B689B68002B51
:10170C0002D104233B6213E03B689B68012B05D19B
:10171C0008233B627B68FA691A6109E008233B6283
:10172C007B68FA695A6103E000233B6200E000BF6A
:10173C00BB69FF2B01D87B6801E07B6804337B61BC
:10174C00BB69FF2B02D87B6A9B0002E07B6A083BDB
:10175C009B003B617B691A680F213B6901FA03F31B
:10176C00DB431A40396A3B6901FA03F31A437B697C
:10177C001A603B685B6803F08053002B00F090808C
:10178C00564B9B69554A43F001039361534B9B693C
:10179C0003F00103BB60BB68514A7B6A9B080233B0
:1017AC0052F82330FB607B6A03F003039B000F228B
:1017BC0002FA03F3DB43FA681340FB607B68494A87
:1017CC0093420DD07B68484A934207D07B68474AC6
:1017DC00934201D1022304E0032302E0012300E041
:1017EC0000237A6A02F0030292009340FA681343D2
:1017FC00FB603B497B6A9B080233FA6841F8232063
:10180C003B685B6803F48013002B06D0384B9A6856
:10181C003749BB6913438B6006E0354B9A68BB694B
:10182C00DB43334913408B603B685B6803F4001364
:10183C00002B06D02E4BDA682D49BB691343CB60C5
:10184C0006E02B4BDA68BB69DB4329491340CB60BC
:10185C003B685B6803F40033002B06D0244B5A68BA
:10186C002349BB6913434B6006E0214B5A68BB69A3
:10187C00DB431F4913404B603B685B6803F48033C8
:10188C00002B06D01A4B1A681949BB6913430B601D
:10189C0006E0174B1A68BB69DB43154913400B6014
:1018AC007B6A01337B623B681A687B6A22FA03F31A
:1018BC00002B7FF4AFAE00BF00BF2C37BD4680BC01
:1018CC00704700BF000032100000311000002210E1
:1018DC000000211000001210000011100010024036
:1018EC000000014000080140000C014000100140C4
:1018FC000004014080B485B000AF78600B467B805B
:10190C007B689A687B881340002B02D00123FB7301
:10191C0001E00023FB73FB7B18461437BD4680BCEB
:10192C00704780B483B000AF78600B467B80134661
:10193C007B707B78002B03D07A887B681A6103E07C
:10194C007B881A047B681A6100BF0C37BD4680BCCB
:10195C00704780B485B000AF78600B467B807B68A5
:10196C00DB68FB607A88FB6813401A04FB68D94378
:10197C007B880B401A437B681A6100BF1437BD4645
:10198C0080BC704780B586B000AF78607B68002B58
:10199C0001D101236CE27B681B6803F00103002B6F
:1019AC0000F08780924B5B6803F00C03042B0CD087
:1019BC008F4B5B6803F00C03082B12D18C4B5B68CC
:1019CC0003F48033B3F5803F0BD1894B1B6803F4D0
:1019DC000033002B6CD07B685B68002B68D1012333
:1019EC0046E27B685B68B3F5803F06D1804B1B6891
:1019FC007F4A43F4803313602EE07B685B68002BD6
:101A0C000CD17B4B1B687A4A23F480331360784BE0
:101A1C001B68774A23F4802313601DE07B685B68A6
:101A2C00B3F5A02F0CD1724B1B68714A43F4802381
:101A3C0013606F4B1B686E4A43F4803313600BE0EA
:101A4C006B4B1B686A4A23F480331360684B1B682A
:101A5C00674A23F4802313607B685B68002B13D0E8
:101A6C00FFF7B6FC386108E0FFF7B2FC02463B69B1
:101A7C00D31A642B01D90323FAE15D4B1B6803F4E1
:101A8C000033002BF0D014E0FFF7A2FC386108E023
:101A9C00FFF79EFC02463B69D31A642B01D9032342
:101AAC00E6E1534B1B6803F40033002BF0D100E04C
:101ABC0000BF7B681B6803F00203002B63D04C4B08
:101ACC005B6803F00C03002B0BD0494B5B6803F0F5
:101ADC000C03082B1CD1464B5B6803F48033002BA2
:101AEC0016D1434B1B6803F00203002B05D07B6817
:101AFC001B69012B01D00123BAE13D4B1B6823F07C
:101B0C00F8027B685B69DB00394913430B603AE0F0
:101B1C007B681B69002B20D0364B01221A60FFF723
:101B2C0057FC386108E0FFF753FC02463B69D31AB7
:101B3C00022B01D903239BE12D4B1B6803F00203FD
:101B4C00002BF0D02A4B1B6823F0F8027B685B69F2
:101B5C00DB00274913430B6015E0264B00221A606B
:101B6C00FFF736FC386108E0FFF732FC02463B69B0
:101B7C00D31A022B01D903237AE11D4B1B6803F006
:101B8C000203002BF0D17B681B6803F00803002BC9
:101B9C003AD07B689B69002B19D0174B01221A6035
:101BAC00FFF716FC386108E0FFF712FC02463B69B0
:101BBC00D31A022B01D903235AE10D4B5B6A03F0B4
:101BCC000203002BF0D0012000F09AFA1CE00A4B23
:101BDC0000221A60FFF7FCFB38610FE0FFF7F8FBFF
:101BEC0002463B69D31A022B08D9032340E100BFFC
:101BFC000010024000004242800442429E4B5B6A4D
:101C0C0003F00203002BE9D17B681B6803F004038B
:101C1C00002B00F0A6800023FB75974BDB6903F0CB
:101C2C008053002B0DD1944BDB69934A43F08053C6
:101C3C00D361914BDB6903F08053BB60BB6801231C
:101C4C00FB758E4B1B6803F48073002B18D18B4BE8
:101C5C001B688A4A43F480731360FFF7B9FB386141
:101C6C0008E0FFF7B5FB02463B69D31A642B01D998
:101C7C000323FDE0814B1B6803F48073002BF0D031
:101C8C007B68DB68012B06D17B4B1B6A7A4A43F0DD
:101C9C00010313622DE07B68DB68002B0CD1764BC3
:101CAC001B6A754A23F001031362734B1B6A724A59
:101CBC0023F0040313621CE07B68DB68052B0CD15A
:101CCC006D4B1B6A6C4A43F0040313626A4B1B6A2C
:101CDC00694A43F0010313620BE0674B1B6A664AC7
:101CEC0023F001031362644B1B6A634A23F0040361
:101CFC0013627B68DB68002B15D0FFF769FB38613A
:101D0C000AE0FFF765FB02463B69D31A41F28832C1
:101D1C00934201D90323ABE0574B1B6A03F0020338
:101D2C00002BEED014E0FFF753FB38610AE0FFF70D
:101D3C004FFB02463B69D31A41F28832934201D9D8
:101D4C00032395E04C4B1B6A03F00203002BEED1EE
:101D5C00FB7D012B05D1484BDB69474A23F08053AF
:101D6C00D3617B68DB69002B00F08180424B5B68A0
:101D7C0003F00C03082B61D07B68DB69022B46D186
:101D8C003F4B00221A60FFF723FB386108E0FFF796
:101D9C001FFB02463B69D31A022B01D9032367E0D0
:101DAC00354B1B6803F00073002BF0D17B681B6A6A
:101DBC00B3F5803F08D1304B5B6823F400327B686D
:101DCC009B682D4913434B602B4B5B6823F47412B7
:101DDC007B68196A7B685B6A0B43274913434B602A
:101DEC00274B01221A60FFF7F3FA386108E0FFF77E
:101DFC00EFFA02463B69D31A022B01D9032337E0D1
:101E0C001D4B1B6803F00073002BF0D02FE01C4B14
:101E1C0000221A60FFF7DCFA386108E0FFF7D8FA05
:101E2C0002463B69D31A022B01D9032320E0124B43
:101E3C001B6803F00073002BF0D118E07B68DB69A2
:101E4C00012B01D1012313E00B4B5B68FB60FB689A
:101E5C0003F480327B681B6A9A4206D1FB6803F458
:101E6C0070127B685B6A9A4201D0012300E0002368
:101E7C0018461837BD4680BD001002400070004067
:101E8C006000424280B584B000AF786039607B68F6
:101E9C00002B01D10123D0E06A4B1B6803F0070330
:101EAC003A689A4210D9674B1B6823F007026549C0
:101EBC003B6813430B60634B1B6803F007033A68E2
:101ECC009A4201D00123B8E07B681B6803F002033F
:101EDC00002B20D07B681B6803F00403002B05D07B
:101EEC00594B5B68584A43F4E06353607B681B684A
:101EFC0003F00803002B05D0534B5B68524A43F4A4
:101F0C0060535360504B5B6823F0F0027B689B6816
:101F1C004D4913434B607B681B6803F00103002B96
:101F2C0040D07B685B68012B07D1474B1B6803F4DF
:101F3C000033002B15D101237FE07B685B68022BFB
:101F4C0007D1414B1B6803F00073002B09D101230F
:101F5C0073E03D4B1B6803F00203002B01D10123FE
:101F6C006BE0394B5B6823F003027B685B68364996
:101F7C0013434B60FFF72CFAF8600AE0FFF728FADE
:101F8C000246FB68D31A41F28832934201D90323EB
:101F9C0053E02D4B5B6803F00C027B685B689B0085
:101FAC009A42EBD1274B1B6803F007033A689A421D
:101FBC0010D2244B1B6823F0070222493B681343C1
:101FCC000B60204B1B6803F007033A689A4201D060
:101FDC00012332E07B681B6803F00403002B08D05C
:101FEC00194B5B6823F4E0627B68DB68164913438A
:101FFC004B607B681B6803F00803002B09D0124B65
:10200C005B6823F460527B681B69DB000E49134349
:10201C004B6000F021F802460B4B5B681B0903F088
:10202C000F030A49CB5C22FA03F3094A1360094BEC
:10203C001B681846FFF78AF9002318461037BD466F
:10204C0080BD00BF00200240001002407029000833
:10205C00100000201400002080B487B000AF0023D3
:10206C00FB600023BB6000237B6100237B600023AB
:10207C003B611E4B5B68FB60FB6803F00C03042B9D
:10208C0002D0082B03D027E0194B3B6127E0FB68FB
:10209C009B0C03F00F03174AD35C7B60FB6803F4C3
:1020AC008033002B10D0114B5B685B0C03F00103E9
:1020BC00114AD35CBB607B680D4A02FB03F2BB6820
:1020CC00B2FBF3F37B6104E07B680C4A02FB03F385
:1020DC007B617B693B6102E0054B3B6100BF3B6967
:1020EC0018461C37BD4680BC704700BF001002402C
:1020FC0000127A00802900089029000800093D0090
:10210C0080B485B000AF78600A4B1B680A4AA2FB0A
:10211C0003235B0A7A6802FB03F3FB6000BFFB68D6
:10212C005A1EFA60002BF9D100BF00BF1437BD4610
:10213C0080BC704710000020D34D621080B582B077
:10214C0000AF78607B68002B01D1012341E07B68F4
:10215C0093F83D30DBB2002B06D17B68002283F86C
:10216C003C207868FFF75AF87B68022283F83D2000
:10217C007B681A687B6804331946104600F056FADF
:10218C007B68012283F846207B68012283F83E207D
:10219C007B68012283F83F207B68012283F8402072
:1021AC007B68012283F841207B68012283F842205E
:1021BC007B68012283F843207B68012283F844204A
:1021CC007B68012283F845207B68012283F83D203F
:1021DC00002318460837BD4680BD000080B485B08A
:1021EC0000AF78607B6893F83D30DBB2012B01D0F7
:1021FC00012335E07B68022283F83D207B681B6855
:10220C00DA687B681B6842F00102DA607B681B6845
:10221C00164A934209D07B681B68B3F1804F04D0F7
:10222C007B681B68124A934211D17B681B689B68C0
:10223C0003F00703FB60FB68062B10D07B681B6860
:10224C001A687B681B6842F001021A6007E07B6821
:10225C001B681A687B681B6842F001021A60002335
:10226C0018461437BD4680BC704700BF002C014097
:10227C000004004080B584B000AF78607B681B68B8
:10228C00DB68FB607B681B681B69BB60BB6803F089
:10229C000203002B20D0FB6803F00203002B1BD0A1
:1022AC007B681B686FF002021A617B6801221A7747
:1022BC007B681B689B6903F00303002B03D07868D1
:1022CC0000F098F905E0786800F08BF9786800F078
:1022DC009AF97B6800221A77BB6803F00403002B81
:1022EC0020D0FB6803F00403002B1BD07B681B6819
:1022FC006FF004021A617B6802221A777B681B68F4
:10230C009B6903F44073002B03D0786800F072F9DA
:10231C0005E0786800F065F9786800F074F97B687E
:10232C0000221A77BB6803F00803002B20D0FB684F
:10233C0003F00803002B1BD07B681B686FF00802AE
:10234C001A617B6804221A777B681B68DB6903F0CF
:10235C000303002B03D0786800F04CF905E0786893
:10236C0000F03FF9786800F04EF97B6800221A778C
:10237C00BB6803F01003002B20D0FB6803F01003A4
:10238C00002B1BD07B681B686FF010021A617B68F6
:10239C0008221A777B681B68DB6903F44073002BF7
:1023AC0003D0786800F026F905E0786800F019F998
:1023BC00786800F028F97B6800221A77BB6803F074
:1023CC000103002B0CD0FB6803F00103002B07D09A
:1023DC007B681B686FF001021A617868FEF736FEA5
:1023EC00BB6803F08003002B0CD0FB6803F0800368
:1023FC00002B07D07B681B686FF080021A6178682D
:10240C0000F06FFABB6803F04003002B0CD0FB68A4
:10241C0003F04003002B07D07B681B686FF0400271
:10242C001A61786800F0F8F8BB6803F02003002B01
:10243C000CD0FB6803F02003002B07D07B681B68D3
:10244C006FF020021A61786800F042FA00BF103772
:10245C00BD4680BD80B584B000AF78603960002384
:10246C00FB737B6893F83C30012B01D10223B4E061
:10247C007B68012283F83C207B68022283F83D2094
:10248C007B681B689B68BB60BB6823F07703BB60F1
:10249C00BB6823F47F43BB607B681B68BA689A6097
:1024AC003B681B68B3F5005F3ED0B3F5005F00F2EC
:1024BC008780B3F5805F00F08680B3F5805F7FD8AE
:1024CC00702B1AD0702B7BD8602B50D0602B77D808
:1024DC00502B3CD0502B73D8402B58D0402B6FD85E
:1024EC00302B64D0302B6BD8202B60D0202B67D8AE
:1024FC00002B5CD0102B5AD062E07B6818683B68CC
:10250C0099683B685A683B68DB6800F06AF97B683D
:10251C001B689B68BB60BB6843F07703BB607B6840
:10252C001B68BA689A604FE07B6818683B689968CA
:10253C003B685A683B68DB6800F053F97B681B68A2
:10254C009A687B681B6842F480429A603CE07B6826
:10255C0018683B6859683B68DB681A4600F0CAF893
:10256C007B681B685021184600F021F92CE07B6831
:10257C0018683B6859683B68DB681A4600F0E8F855
:10258C007B681B686021184600F011F91CE07B6821
:10259C0018683B6859683B68DB681A4600F0AAF873
:1025AC007B681B684021184600F001F90CE07B6841
:1025BC001A683B681B681946104600F0F8F803E0EF
:1025CC000123FB7300E000BF7B68012283F83D20F0
:1025DC007B68002283F83C20FB7B18461037BD46F5
:1025EC0080BD80B483B000AF786000BF0C37BD46AF
:1025FC0080BC704780B483B000AF786000BF0C37EC
:10260C00BD4680BC704780B483B000AF786000BF1B
:10261C000C37BD4680BC704780B483B000AF786087
:10262C0000BF0C37BD4680BC7047000080B485B03D
:10263C0000AF786039607B681B68FB607B682B4A55
:10264C00934207D07B68B3F1804F03D07B68284A54
:10265C00934208D1FB6823F07003FB603B685B6816
:10266C00FA681343FB607B68204A934207D07B686F
:10267C00B3F1804F03D07B681D4A934208D1FB68AD
:10268C0023F44073FB603B68DB68FA681343FB6020
:10269C00FB6823F080023B685B691343FB607B683B
:1026AC00FA681A603B689A687B68DA623B681A6859
:1026BC007B689A627B680D4A934203D13B681A6926
:1026CC007B681A637B6801225A617B681B6903F083
:1026DC000103002B05D07B681B6923F001027B688A
:1026EC001A6100BF1437BD4680BC7047002C0140F6
:1026FC000004004080B487B000AFF860B9607A6025
:10270C00FB681B6A7B61FB681B6A23F00102FB6898
:10271C001A62FB689B693B613B6923F0F0033B61E8
:10272C007B681B013A6913433B617B6923F00A0305
:10273C007B617A69BB6813437B61FB683A699A6178
:10274C00FB687A691A6200BF1C37BD4680BC7047B3
:10275C0080B487B000AFF860B9607A60FB681B6A20
:10276C007B61FB681B6A23F01002FB681A62FB6832
:10277C009B693B613B6923F470433B617B681B03A2
:10278C003A6913433B617B6923F0A0037B61BB680F
:10279C001B017A6913437B61FB683A699A61FB6898
:1027AC007A691A6200BF1C37BD4680BC704780B482
:1027BC0085B000AF786039607B689B68FB60FB6814
:1027CC0023F07003FB603A68FB68134343F0070384
:1027DC00FB607B68FA689A6000BF1437BD4680BC0A
:1027EC00704780B487B000AFF860B9607A603B6026
:1027FC00FB689B687B617B6923F47F437B613B684F
:10280C001A027B681A43BB6813437A6913437B61D2
:10281C00FB687A699A6000BF1C37BD4680BC704764
:10282C0080B485B000AF786039607B6893F83C3039
:10283C00012B01D1022341E07B68012283F83C206B
:10284C007B68022283F83D207B681B685B68FB6019
:10285C007B681B689B68BB60FB6823F07003FB60A4
:10286C003B681B68FA681343FB607B681B68FA685B
:10287C005A607B681B68144A934209D07B681B68BA
:10288C00B3F1804F04D07B681B68104A93420CD183
:10289C00BB6823F08003BB603B685B68BA6813437A
:1028AC00BB607B681B68BA689A607B68012283F8FE
:1028BC003D207B68002283F83C2000231846143707
:1028CC00BD4680BC704700BF002C01400004004096
:1028DC0080B483B000AF786000BF0C37BD4680BCBD
:1028EC00704780B483B000AF786000BF0C37BD4632
:1028FC0080BC704770B500260C4D0D4C641BA410A9
:10290C00A64209D100F022F800260A4D0A4C641B9D
:10291C00A410A64205D170BD55F8043B984701366A
:10292C00EEE755F8043B98470136F2E79429000886
:10293C0094290008942900089829000803460244A9
:10294C00934200D1704703F8011BF9E7F8B500BFBB
:10295C00F8BC08BC9E467047F8B500BFF8BC08BC74
:04296C009E467047CC
:10297000000000000000000001020304060708092F
:1029800002030405060708090A0B0C0D0E0F1010B0
:042990000102000040
:042994003101000805
:042998000D01000825
:10299C00020000000500000002000000030000001F
:0C29AC0000127A00100000000100000082
:04000005080012E1FC
:00000001FF
